{
  "_format": "hh-sol-artifact-1",
  "contractName": "FoodRecipe",
  "sourceName": "contracts/FoodRecipe.sol",
  "abi": [
    {
      "inputs": [],
      "stateMutability": "nonpayable",
      "type": "constructor"
    },
    {
      "anonymous": false,
      "inputs": [
        {
          "indexed": true,
          "internalType": "address",
          "name": "owner",
          "type": "address"
        },
        {
          "indexed": true,
          "internalType": "address",
          "name": "approved",
          "type": "address"
        },
        {
          "indexed": true,
          "internalType": "uint256",
          "name": "tokenId",
          "type": "uint256"
        }
      ],
      "name": "Approval",
      "type": "event"
    },
    {
      "anonymous": false,
      "inputs": [
        {
          "indexed": true,
          "internalType": "address",
          "name": "owner",
          "type": "address"
        },
        {
          "indexed": true,
          "internalType": "address",
          "name": "operator",
          "type": "address"
        },
        {
          "indexed": false,
          "internalType": "bool",
          "name": "approved",
          "type": "bool"
        }
      ],
      "name": "ApprovalForAll",
      "type": "event"
    },
    {
      "anonymous": false,
      "inputs": [
        {
          "indexed": false,
          "internalType": "uint256",
          "name": "_fromTokenId",
          "type": "uint256"
        },
        {
          "indexed": false,
          "internalType": "uint256",
          "name": "_toTokenId",
          "type": "uint256"
        }
      ],
      "name": "BatchMetadataUpdate",
      "type": "event"
    },
    {
      "anonymous": false,
      "inputs": [
        {
          "indexed": true,
          "internalType": "uint256",
          "name": "tokenId",
          "type": "uint256"
        },
        {
          "indexed": false,
          "internalType": "address",
          "name": "owner",
          "type": "address"
        },
        {
          "indexed": false,
          "internalType": "address",
          "name": "seller",
          "type": "address"
        },
        {
          "indexed": false,
          "internalType": "uint256",
          "name": "price",
          "type": "uint256"
        },
        {
          "indexed": false,
          "internalType": "bool",
          "name": "available",
          "type": "bool"
        }
      ],
      "name": "FoodItemAdded",
      "type": "event"
    },
    {
      "anonymous": false,
      "inputs": [
        {
          "indexed": false,
          "internalType": "uint256",
          "name": "tokenId",
          "type": "uint256"
        },
        {
          "indexed": false,
          "internalType": "address",
          "name": "buyer",
          "type": "address"
        },
        {
          "indexed": false,
          "internalType": "address",
          "name": "seller",
          "type": "address"
        },
        {
          "indexed": false,
          "internalType": "uint256",
          "name": "price",
          "type": "uint256"
        }
      ],
      "name": "FoodItemPurchased",
      "type": "event"
    },
    {
      "anonymous": false,
      "inputs": [
        {
          "indexed": false,
          "internalType": "uint256",
          "name": "tokenId",
          "type": "uint256"
        },
        {
          "indexed": false,
          "internalType": "address",
          "name": "rater",
          "type": "address"
        },
        {
          "indexed": false,
          "internalType": "uint8",
          "name": "rating",
          "type": "uint8"
        }
      ],
      "name": "FoodItemRated",
      "type": "event"
    },
    {
      "anonymous": false,
      "inputs": [
        {
          "indexed": false,
          "internalType": "uint256",
          "name": "_tokenId",
          "type": "uint256"
        }
      ],
      "name": "MetadataUpdate",
      "type": "event"
    },
    {
      "anonymous": false,
      "inputs": [
        {
          "indexed": true,
          "internalType": "address",
          "name": "from",
          "type": "address"
        },
        {
          "indexed": true,
          "internalType": "address",
          "name": "to",
          "type": "address"
        },
        {
          "indexed": true,
          "internalType": "uint256",
          "name": "tokenId",
          "type": "uint256"
        }
      ],
      "name": "Transfer",
      "type": "event"
    },
    {
      "inputs": [
        {
          "internalType": "uint256",
          "name": "tokenid",
          "type": "uint256"
        }
      ],
      "name": "PurchaseFoodItem",
      "outputs": [],
      "stateMutability": "payable",
      "type": "function"
    },
    {
      "inputs": [
        {
          "internalType": "uint256",
          "name": "tokenId",
          "type": "uint256"
        }
      ],
      "name": "addToFavorites",
      "outputs": [],
      "stateMutability": "nonpayable",
      "type": "function"
    },
    {
      "inputs": [
        {
          "internalType": "address",
          "name": "to",
          "type": "address"
        },
        {
          "internalType": "uint256",
          "name": "tokenId",
          "type": "uint256"
        }
      ],
      "name": "approve",
      "outputs": [],
      "stateMutability": "nonpayable",
      "type": "function"
    },
    {
      "inputs": [
        {
          "internalType": "uint256",
          "name": "",
          "type": "uint256"
        }
      ],
      "name": "availableFoodItemIds",
      "outputs": [
        {
          "internalType": "uint256",
          "name": "",
          "type": "uint256"
        }
      ],
      "stateMutability": "view",
      "type": "function"
    },
    {
      "inputs": [
        {
          "internalType": "address",
          "name": "owner",
          "type": "address"
        }
      ],
      "name": "balanceOf",
      "outputs": [
        {
          "internalType": "uint256",
          "name": "",
          "type": "uint256"
        }
      ],
      "stateMutability": "view",
      "type": "function"
    },
    {
      "inputs": [
        {
          "internalType": "string",
          "name": "tokenURL",
          "type": "string"
        },
        {
          "internalType": "uint256",
          "name": "price",
          "type": "uint256"
        }
      ],
      "name": "createFoodToken",
      "outputs": [
        {
          "internalType": "uint256",
          "name": "",
          "type": "uint256"
        }
      ],
      "stateMutability": "payable",
      "type": "function"
    },
    {
      "inputs": [],
      "name": "getAllFoodNFTs",
      "outputs": [
        {
          "components": [
            {
              "internalType": "uint256",
              "name": "tokenId",
              "type": "uint256"
            },
            {
              "internalType": "address payable",
              "name": "owner",
              "type": "address"
            },
            {
              "internalType": "address payable",
              "name": "seller",
              "type": "address"
            },
            {
              "internalType": "uint256",
              "name": "price",
              "type": "uint256"
            },
            {
              "internalType": "bool",
              "name": "available",
              "type": "bool"
            },
            {
              "internalType": "uint256",
              "name": "totalRatings",
              "type": "uint256"
            },
            {
              "internalType": "uint256",
              "name": "totalRatingPoints",
              "type": "uint256"
            },
            {
              "internalType": "address[]",
              "name": "ratedUsers",
              "type": "address[]"
            }
          ],
          "internalType": "struct FoodRecipe.FoodItem[]",
          "name": "",
          "type": "tuple[]"
        }
      ],
      "stateMutability": "view",
      "type": "function"
    },
    {
      "inputs": [
        {
          "internalType": "uint256",
          "name": "tokenId",
          "type": "uint256"
        }
      ],
      "name": "getApproved",
      "outputs": [
        {
          "internalType": "address",
          "name": "",
          "type": "address"
        }
      ],
      "stateMutability": "view",
      "type": "function"
    },
    {
      "inputs": [
        {
          "internalType": "uint256",
          "name": "tokenId",
          "type": "uint256"
        }
      ],
      "name": "getAverageRating",
      "outputs": [
        {
          "internalType": "uint8",
          "name": "",
          "type": "uint8"
        }
      ],
      "stateMutability": "view",
      "type": "function"
    },
    {
      "inputs": [],
      "name": "getFavoriteItems",
      "outputs": [
        {
          "components": [
            {
              "internalType": "uint256",
              "name": "tokenId",
              "type": "uint256"
            },
            {
              "internalType": "address payable",
              "name": "owner",
              "type": "address"
            },
            {
              "internalType": "address payable",
              "name": "seller",
              "type": "address"
            },
            {
              "internalType": "uint256",
              "name": "price",
              "type": "uint256"
            },
            {
              "internalType": "bool",
              "name": "available",
              "type": "bool"
            },
            {
              "internalType": "uint256",
              "name": "totalRatings",
              "type": "uint256"
            },
            {
              "internalType": "uint256",
              "name": "totalRatingPoints",
              "type": "uint256"
            },
            {
              "internalType": "address[]",
              "name": "ratedUsers",
              "type": "address[]"
            }
          ],
          "internalType": "struct FoodRecipe.FoodItem[]",
          "name": "",
          "type": "tuple[]"
        }
      ],
      "stateMutability": "view",
      "type": "function"
    },
    {
      "inputs": [
        {
          "internalType": "uint256",
          "name": "tokenId",
          "type": "uint256"
        }
      ],
      "name": "getFoodItem",
      "outputs": [
        {
          "components": [
            {
              "internalType": "uint256",
              "name": "tokenId",
              "type": "uint256"
            },
            {
              "internalType": "address payable",
              "name": "owner",
              "type": "address"
            },
            {
              "internalType": "address payable",
              "name": "seller",
              "type": "address"
            },
            {
              "internalType": "uint256",
              "name": "price",
              "type": "uint256"
            },
            {
              "internalType": "bool",
              "name": "available",
              "type": "bool"
            },
            {
              "internalType": "uint256",
              "name": "totalRatings",
              "type": "uint256"
            },
            {
              "internalType": "uint256",
              "name": "totalRatingPoints",
              "type": "uint256"
            },
            {
              "internalType": "address[]",
              "name": "ratedUsers",
              "type": "address[]"
            }
          ],
          "internalType": "struct FoodRecipe.FoodItem",
          "name": "",
          "type": "tuple"
        }
      ],
      "stateMutability": "view",
      "type": "function"
    },
    {
      "inputs": [],
      "name": "getListPrice",
      "outputs": [
        {
          "internalType": "uint256",
          "name": "",
          "type": "uint256"
        }
      ],
      "stateMutability": "view",
      "type": "function"
    },
    {
      "inputs": [],
      "name": "getMyFoodNFTs",
      "outputs": [
        {
          "components": [
            {
              "internalType": "uint256",
              "name": "tokenId",
              "type": "uint256"
            },
            {
              "internalType": "address payable",
              "name": "owner",
              "type": "address"
            },
            {
              "internalType": "address payable",
              "name": "seller",
              "type": "address"
            },
            {
              "internalType": "uint256",
              "name": "price",
              "type": "uint256"
            },
            {
              "internalType": "bool",
              "name": "available",
              "type": "bool"
            },
            {
              "internalType": "uint256",
              "name": "totalRatings",
              "type": "uint256"
            },
            {
              "internalType": "uint256",
              "name": "totalRatingPoints",
              "type": "uint256"
            },
            {
              "internalType": "address[]",
              "name": "ratedUsers",
              "type": "address[]"
            }
          ],
          "internalType": "struct FoodRecipe.FoodItem[]",
          "name": "",
          "type": "tuple[]"
        }
      ],
      "stateMutability": "view",
      "type": "function"
    },
    {
      "inputs": [
        {
          "internalType": "uint256",
          "name": "tokenId",
          "type": "uint256"
        }
      ],
      "name": "getRatedUsers",
      "outputs": [
        {
          "internalType": "address[]",
          "name": "",
          "type": "address[]"
        }
      ],
      "stateMutability": "view",
      "type": "function"
    },
    {
      "inputs": [
        {
          "internalType": "address",
          "name": "owner",
          "type": "address"
        },
        {
          "internalType": "address",
          "name": "operator",
          "type": "address"
        }
      ],
      "name": "isApprovedForAll",
      "outputs": [
        {
          "internalType": "bool",
          "name": "",
          "type": "bool"
        }
      ],
      "stateMutability": "view",
      "type": "function"
    },
    {
      "inputs": [],
      "name": "name",
      "outputs": [
        {
          "internalType": "string",
          "name": "",
          "type": "string"
        }
      ],
      "stateMutability": "view",
      "type": "function"
    },
    {
      "inputs": [],
      "name": "owner",
      "outputs": [
        {
          "internalType": "address payable",
          "name": "",
          "type": "address"
        }
      ],
      "stateMutability": "view",
      "type": "function"
    },
    {
      "inputs": [
        {
          "internalType": "uint256",
          "name": "tokenId",
          "type": "uint256"
        }
      ],
      "name": "ownerOf",
      "outputs": [
        {
          "internalType": "address",
          "name": "",
          "type": "address"
        }
      ],
      "stateMutability": "view",
      "type": "function"
    },
    {
      "inputs": [
        {
          "internalType": "uint256",
          "name": "tokenId",
          "type": "uint256"
        },
        {
          "internalType": "uint8",
          "name": "rating",
          "type": "uint8"
        }
      ],
      "name": "rateFoodItem",
      "outputs": [],
      "stateMutability": "nonpayable",
      "type": "function"
    },
    {
      "inputs": [
        {
          "internalType": "uint256",
          "name": "tokenId",
          "type": "uint256"
        }
      ],
      "name": "removeFromFavorites",
      "outputs": [],
      "stateMutability": "nonpayable",
      "type": "function"
    },
    {
      "inputs": [
        {
          "internalType": "address",
          "name": "from",
          "type": "address"
        },
        {
          "internalType": "address",
          "name": "to",
          "type": "address"
        },
        {
          "internalType": "uint256",
          "name": "tokenId",
          "type": "uint256"
        }
      ],
      "name": "safeTransferFrom",
      "outputs": [],
      "stateMutability": "nonpayable",
      "type": "function"
    },
    {
      "inputs": [
        {
          "internalType": "address",
          "name": "from",
          "type": "address"
        },
        {
          "internalType": "address",
          "name": "to",
          "type": "address"
        },
        {
          "internalType": "uint256",
          "name": "tokenId",
          "type": "uint256"
        },
        {
          "internalType": "bytes",
          "name": "data",
          "type": "bytes"
        }
      ],
      "name": "safeTransferFrom",
      "outputs": [],
      "stateMutability": "nonpayable",
      "type": "function"
    },
    {
      "inputs": [
        {
          "internalType": "address",
          "name": "operator",
          "type": "address"
        },
        {
          "internalType": "bool",
          "name": "approved",
          "type": "bool"
        }
      ],
      "name": "setApprovalForAll",
      "outputs": [],
      "stateMutability": "nonpayable",
      "type": "function"
    },
    {
      "inputs": [
        {
          "internalType": "uint256",
          "name": "newPrice",
          "type": "uint256"
        }
      ],
      "name": "setListPrice",
      "outputs": [],
      "stateMutability": "nonpayable",
      "type": "function"
    },
    {
      "inputs": [
        {
          "internalType": "bytes4",
          "name": "interfaceId",
          "type": "bytes4"
        }
      ],
      "name": "supportsInterface",
      "outputs": [
        {
          "internalType": "bool",
          "name": "",
          "type": "bool"
        }
      ],
      "stateMutability": "view",
      "type": "function"
    },
    {
      "inputs": [],
      "name": "symbol",
      "outputs": [
        {
          "internalType": "string",
          "name": "",
          "type": "string"
        }
      ],
      "stateMutability": "view",
      "type": "function"
    },
    {
      "inputs": [
        {
          "internalType": "uint256",
          "name": "tokenId",
          "type": "uint256"
        }
      ],
      "name": "tokenURI",
      "outputs": [
        {
          "internalType": "string",
          "name": "",
          "type": "string"
        }
      ],
      "stateMutability": "view",
      "type": "function"
    },
    {
      "inputs": [
        {
          "internalType": "address",
          "name": "from",
          "type": "address"
        },
        {
          "internalType": "address",
          "name": "to",
          "type": "address"
        },
        {
          "internalType": "uint256",
          "name": "tokenId",
          "type": "uint256"
        }
      ],
      "name": "transferFrom",
      "outputs": [],
      "stateMutability": "nonpayable",
      "type": "function"
    }
  ],
  "bytecode": "0x6080604052662386f26fc100006008553480156200001c57600080fd5b50604080518082018252600a815269466f6f6452656369706560b01b6020808301918252835180850190945260048452634e46544d60e01b9084015281519192916200006b916000916200009c565b508051620000819060019060208401906200009c565b5050600980546001600160a01b03191633179055506200017f565b828054620000aa9062000142565b90600052602060002090601f016020900481019282620000ce576000855562000119565b82601f10620000e957805160ff191683800117855562000119565b8280016001018555821562000119579182015b8281111562000119578251825591602001919060010190620000fc565b50620001279291506200012b565b5090565b5b808211156200012757600081556001016200012c565b600181811c908216806200015757607f821691505b602082108114156200017957634e487b7160e01b600052602260045260246000fd5b50919050565b612b8f806200018f6000396000f3fe6080604052600436106101b75760003560e01c806370a08231116100ec578063b88d4fde1161008a578063c87b56dd11610064578063c87b56dd146104f0578063e985e9c514610510578063f5ccc11c14610559578063fe7d5bbb1461056c57600080fd5b8063b88d4fde1461049b578063c53d5cbb146104bb578063c54f0930146104d057600080fd5b80639adc4032116100c65780639adc4032146104285780639d8acb0114610448578063a22cb46514610468578063b03e6e001461048857600080fd5b806370a08231146103d35780638da5cb5b146103f357806395d89b411461041357600080fd5b80632b75ef05116101595780634d72339e116101335780634d72339e1461036757806357cbbd1c146103895780636352211e1461039e57806368f1945f146103be57600080fd5b80632b75ef05146102ec5780633a82000c1461031a57806342842e0e1461034757600080fd5b8063095ea7b311610195578063095ea7b31461024b57806317b7e03e1461026d5780631f4ab5e71461029f57806323b872dd146102cc57600080fd5b806301ffc9a7146101bc57806306fdde03146101f1578063081812fc14610213575b600080fd5b3480156101c857600080fd5b506101dc6101d7366004612686565b61058c565b60405190151581526020015b60405180910390f35b3480156101fd57600080fd5b506102066105b7565b6040516101e89190612942565b34801561021f57600080fd5b5061023361022e366004612714565b610649565b6040516001600160a01b0390911681526020016101e8565b34801561025757600080fd5b5061026b61026636600461265d565b610670565b005b34801561027957600080fd5b5061028d610288366004612714565b61078b565b60405160ff90911681526020016101e8565b3480156102ab57600080fd5b506102bf6102ba366004612714565b6107c6565b6040516101e89190612a39565b3480156102d857600080fd5b5061026b6102e736600461256f565b6108a1565b3480156102f857600080fd5b5061030c610307366004612714565b6108d2565b6040519081526020016101e8565b34801561032657600080fd5b5061033a610335366004612714565b6108f3565b6040516101e89190612894565b34801561035357600080fd5b5061026b61036236600461256f565b610962565b34801561037357600080fd5b5061037c61097d565b6040516101e891906128e1565b34801561039557600080fd5b5061037c610bc4565b3480156103aa57600080fd5b506102336103b9366004612714565b610d7b565b3480156103ca57600080fd5b5060085461030c565b3480156103df57600080fd5b5061030c6103ee366004612523565b610ddb565b3480156103ff57600080fd5b50600954610233906001600160a01b031681565b34801561041f57600080fd5b50610206610e61565b34801561043457600080fd5b5061026b61044336600461272c565b610e70565b34801561045457600080fd5b5061026b610463366004612714565b61109a565b34801561047457600080fd5b5061026b610483366004612623565b611142565b61026b610496366004612714565b611151565b3480156104a757600080fd5b5061026b6104b63660046125aa565b61124c565b3480156104c757600080fd5b5061037c61127e565b3480156104dc57600080fd5b5061026b6104eb366004612714565b611440565b3480156104fc57600080fd5b5061020661050b366004612714565b6115ed565b34801561051c57600080fd5b506101dc61052b36600461253d565b6001600160a01b03918216600090815260056020908152604080832093909416825291909152205460ff1690565b61030c6105673660046126be565b6116fe565b34801561057857600080fd5b5061026b610587366004612714565b61192c565b60006001600160e01b03198216632483248360e11b14806105b157506105b182611999565b92915050565b6060600080546105c690612ac7565b80601f01602080910402602001604051908101604052809291908181526020018280546105f290612ac7565b801561063f5780601f106106145761010080835404028352916020019161063f565b820191906000526020600020905b81548152906001019060200180831161062257829003601f168201915b5050505050905090565b6000610654826119e9565b506000908152600460205260409020546001600160a01b031690565b600061067b82610d7b565b9050806001600160a01b0316836001600160a01b031614156106ee5760405162461bcd60e51b815260206004820152602160248201527f4552433732313a20617070726f76616c20746f2063757272656e74206f776e656044820152603960f91b60648201526084015b60405180910390fd5b336001600160a01b038216148061070a575061070a813361052b565b61077c5760405162461bcd60e51b815260206004820152603d60248201527f4552433732313a20617070726f76652063616c6c6572206973206e6f7420746f60448201527f6b656e206f776e6572206f7220617070726f76656420666f7220616c6c00000060648201526084016106e5565b6107868383611a4b565b505050565b6000818152600a6020526040812060058101546107ab5750600092915050565b806005015481600601546107bf9190612a64565b9392505050565b6107ce61234a565b6000828152600a60209081526040918290208251610100810184528154815260018201546001600160a01b03908116828501526002830154168185015260038201546060820152600482015460ff1615156080820152600582015460a0820152600682015460c08201526007820180548551818602810186019096528086529194929360e0860193929083018282801561089157602002820191906000526020600020905b81546001600160a01b03168152600190910190602001808311610873575b5050505050815250509050919050565b6108ab3382611ab9565b6108c75760405162461bcd60e51b81526004016106e590612955565b610786838383611b37565b600b81815481106108e257600080fd5b600091825260209091200154905081565b6000818152600a602090815260409182902060070180548351818402810184019094528084526060939283018282801561095657602002820191906000526020600020905b81546001600160a01b03168152600190910190602001808311610938575b50505050509050919050565b6107868383836040518060200160405280600081525061124c565b6060600061098a60075490565b905060008080805b848110156109ed5733600a60006109aa846001612a4c565b81526020810191909152604001600020600101546001600160a01b031614156109db576109d8600185612a4c565b93505b806109e581612afc565b915050610992565b5060008367ffffffffffffffff811115610a1757634e487b7160e01b600052604160045260246000fd5b604051908082528060200260200182016040528015610a5057816020015b610a3d61234a565b815260200190600190039081610a355790505b50905060005b85811015610bba5733600a6000610a6e846001612a4c565b81526020810191909152604001600020600101546001600160a01b03161415610ba857610a9c816001612a4c565b6000818152600a60209081526040918290208251610100810184528154815260018201546001600160a01b03908116828501526002830154168185015260038201546060820152600482015460ff1615156080820152600582015460a0820152600682015460c082015260078201805485518186028101860190965280865295985091949093859360e0860193919290830182828015610b6557602002820191906000526020600020905b81546001600160a01b03168152600190910190602001808311610b47575b505050505081525050838681518110610b8e57634e487b7160e01b600052603260045260246000fd5b6020908102919091010152610ba4600186612a4c565b9450505b80610bb281612afc565b915050610a56565b5095945050505050565b600b5460609060009067ffffffffffffffff811115610bf357634e487b7160e01b600052604160045260246000fd5b604051908082528060200260200182016040528015610c2c57816020015b610c1961234a565b815260200190600190039081610c115790505b50905060005b600b54811015610d75576000600b8281548110610c5f57634e487b7160e01b600052603260045260246000fd5b6000918252602080832090910154808352600a82526040928390208351610100810185528154815260018201546001600160a01b03908116828601526002830154168186015260038201546060820152600482015460ff1615156080820152600582015460a0820152600682015460c08201526007820180548651818702810187019097528087529396509094919360e086019390830182828015610d2d57602002820191906000526020600020905b81546001600160a01b03168152600190910190602001808311610d0f575b505050505081525050838381518110610d5657634e487b7160e01b600052603260045260246000fd5b6020026020010181905250508080610d6d90612afc565b915050610c32565b50919050565b6000818152600260205260408120546001600160a01b0316806105b15760405162461bcd60e51b8152602060048201526018602482015277115490cdcc8c4e881a5b9d985b1a59081d1bdad95b88125160421b60448201526064016106e5565b60006001600160a01b038216610e455760405162461bcd60e51b815260206004820152602960248201527f4552433732313a2061646472657373207a65726f206973206e6f7420612076616044820152683634b21037bbb732b960b91b60648201526084016106e5565b506001600160a01b031660009081526003602052604090205490565b6060600180546105c690612ac7565b60018160ff1610158015610e88575060058160ff1611155b610ed45760405162461bcd60e51b815260206004820152601e60248201527f526174696e67206d757374206265206265747765656e203120616e642035000060448201526064016106e5565b6000828152600a6020526040902060018101546001600160a01b0316331415610f4b5760405162461bcd60e51b8152602060048201526024808201527f546865206f776e65722063616e6e6f742072617465207468656972206f776e206044820152636974656d60e01b60648201526084016106e5565b60005b6007820154811015610ffc57336001600160a01b0316826007018281548110610f8757634e487b7160e01b600052603260045260246000fd5b6000918252602090912001546001600160a01b03161415610fea5760405162461bcd60e51b815260206004820181905260248201527f596f75206861766520616c72656164792072617465642074686973206974656d60448201526064016106e5565b80610ff481612afc565b915050610f4e565b506007810180546001810182556000918252602082200180546001600160a01b031916331790556005820180549161103383612afc565b91905055508160ff1681600601600082825461104f9190612a4c565b90915550506040805184815233602082015260ff84168183015290517fcf4d9c22f6d4b4ff7cbc8e860eb9887647ace46366e14b17cc3d17259897e3bf9181900360600190a1505050565b60005b336000908152600c602052604090205481101561111057336000908152600c602052604090208054839190839081106110e657634e487b7160e01b600052603260045260246000fd5b906000526020600020016000015414156110fe575050565b8061110881612afc565b91505061109d565b50336000908152600c602090815260408083208151808401909252938152835460018101855593835291209051910155565b61114d338383611c9b565b5050565b6000818152600a6020526040902060038101546001909101546001600160a01b03163482146111d75760405162461bcd60e51b815260206004820152602c60248201527f796f75206d757374207061792074686520707269636520746f2070757263686160448201526b39b2903a34329037b93232b960a11b60648201526084016106e5565b6000838152600a6020526040902060010180546001600160a01b0319163390811790915561120790829085611b37565b6112118184610670565b6040516001600160a01b038216903480156108fc02916000818181858888f19350505050158015611246573d6000803e3d6000fd5b50505050565b6112563383611ab9565b6112725760405162461bcd60e51b81526004016106e590612955565b61124684848484611d6a565b336000908152600c6020526040812080546060929067ffffffffffffffff8111156112b957634e487b7160e01b600052604160045260246000fd5b6040519080825280602002602001820160405280156112f257816020015b6112df61234a565b8152602001906001900390816112d75790505b50905060005b825481101561143957600083828154811061132357634e487b7160e01b600052603260045260246000fd5b6000918252602080832090910154808352600a82526040928390208351610100810185528154815260018201546001600160a01b03908116828601526002830154168186015260038201546060820152600482015460ff1615156080820152600582015460a0820152600682015460c08201526007820180548651818702810187019097528087529396509094919360e0860193908301828280156113f157602002820191906000526020600020905b81546001600160a01b031681526001909101906020018083116113d3575b50505050508152505083838151811061141a57634e487b7160e01b600052603260045260246000fd5b602002602001018190525050808061143190612afc565b9150506112f8565b5092915050565b336000908152600c602052604090205461149c5760405162461bcd60e51b815260206004820152601b60248201527f546865726520617265206e6f206661766f72697465206974656d73000000000060448201526064016106e5565b60005b336000908152600c602052604090205481101561114d57336000908152600c602052604090208054839190839081106114e857634e487b7160e01b600052603260045260246000fd5b906000526020600020016000015414156115db57336000908152600c60205260409020805461151990600190612a84565b8154811061153757634e487b7160e01b600052603260045260246000fd5b90600052602060002001600c6000336001600160a01b03166001600160a01b03168152602001908152602001600020828154811061158557634e487b7160e01b600052603260045260246000fd5b6000918252602080832093549190930155338152600c909152604090208054806115bf57634e487b7160e01b600052603160045260246000fd5b6000828152602081208201600019908101919091550190555050565b806115e581612afc565b91505061149f565b60606115f8826119e9565b6000828152600660205260408120805461161190612ac7565b80601f016020809104026020016040519081016040528092919081815260200182805461163d90612ac7565b801561168a5780601f1061165f5761010080835404028352916020019161168a565b820191906000526020600020905b81548152906001019060200180831161166d57829003601f168201915b5050505050905060006116a860408051602081019091526000815290565b90508051600014156116bb575092915050565b8151156116ed5780826040516020016116d5929190612828565b60405160208183030381529060405292505050919050565b6116f684611d9d565b949350505050565b600060085434146117515760405162461bcd60e51b815260206004820152601b60248201527f53656e642074686520636f7272656374206c697374207072696365000000000060448201526064016106e5565b600082116117a15760405162461bcd60e51b815260206004820152601860248201527f50726963652063616e6e6f74206265206e65676174697665000000000000000060448201526064016106e5565b6117af600780546001019055565b60006117ba60075490565b90506117c63382611e10565b6117d08185611e2a565b60408051610100810182528281523360208083019182523083850190815260608401888152600160808601818152600060a0880181815260c089018281528a518381528089018c5260e08b019081528c8452600a89529a90922089518155975193880180546001600160a01b03199081166001600160a01b0396871617909155955160028901805490971694169390931790945591516003860155905160048501805460ff191691151591909117905551600584015551600683015592518051929391926118a492600785019201906123a3565b505060408051338152306020820152908101859052600160608201528291507f21fc84a3ce4a44c91c8199979356dc5cda4bde8f81b104256c8ca42d5052d9569060800160405180910390a2600b80546001810182556000919091527f0175b7a638427703f0dbe7bb9bbf987a2551717b34e79f33b5b1008d1fa01db9018190559392505050565b6009546001600160a01b031633146119945760405162461bcd60e51b815260206004820152602560248201527f4f6e6c7920746865206f776e65722063616e2063616c6c20746869732066756e60448201526431ba34b7b760d91b60648201526084016106e5565b600855565b60006001600160e01b031982166380ac58cd60e01b14806119ca57506001600160e01b03198216635b5e139f60e01b145b806105b157506301ffc9a760e01b6001600160e01b03198316146105b1565b6000818152600260205260409020546001600160a01b0316611a485760405162461bcd60e51b8152602060048201526018602482015277115490cdcc8c4e881a5b9d985b1a59081d1bdad95b88125160421b60448201526064016106e5565b50565b600081815260046020526040902080546001600160a01b0319166001600160a01b0384169081179091558190611a8082610d7b565b6001600160a01b03167f8c5be1e5ebec7d5bd14f71427d1e84f3dd0314c0f7b2291e5b200ac8c7c3b92560405160405180910390a45050565b600080611ac583610d7b565b9050806001600160a01b0316846001600160a01b03161480611b0c57506001600160a01b0380821660009081526005602090815260408083209388168352929052205460ff165b806116f65750836001600160a01b0316611b2584610649565b6001600160a01b031614949350505050565b826001600160a01b0316611b4a82610d7b565b6001600160a01b031614611b705760405162461bcd60e51b81526004016106e5906129f4565b6001600160a01b038216611bd25760405162461bcd60e51b8152602060048201526024808201527f4552433732313a207472616e7366657220746f20746865207a65726f206164646044820152637265737360e01b60648201526084016106e5565b826001600160a01b0316611be582610d7b565b6001600160a01b031614611c0b5760405162461bcd60e51b81526004016106e5906129f4565b600081815260046020908152604080832080546001600160a01b03199081169091556001600160a01b0387811680865260038552838620805460001901905590871680865283862080546001019055868652600290945282852080549092168417909155905184937fddf252ad1be2c89b69c2b068fc378daa952ba7f163c4a11628f55a4df523b3ef91a4505050565b816001600160a01b0316836001600160a01b03161415611cfd5760405162461bcd60e51b815260206004820152601960248201527f4552433732313a20617070726f766520746f2063616c6c65720000000000000060448201526064016106e5565b6001600160a01b03838116600081815260056020908152604080832094871680845294825291829020805460ff191686151590811790915591519182527f17307eab39ab6107e8899845ad3d59bd9653f200f220920489ca2b5937696c31910160405180910390a3505050565b611d75848484611b37565b611d8184848484611efc565b6112465760405162461bcd60e51b81526004016106e5906129a2565b6060611da8826119e9565b6000611dbf60408051602081019091526000815290565b90506000815111611ddf57604051806020016040528060008152506107bf565b80611de984612009565b604051602001611dfa929190612828565b6040516020818303038152906040529392505050565b61114d8282604051806020016040528060008152506120b4565b6000828152600260205260409020546001600160a01b0316611ea55760405162461bcd60e51b815260206004820152602e60248201527f45524337323155524953746f726167653a2055524920736574206f66206e6f6e60448201526d32bc34b9ba32b73a103a37b5b2b760911b60648201526084016106e5565b60008281526006602090815260409091208251611ec492840190612408565b506040518281527ff8e1a15aba9398e019f0b49df1a4fde98ee17ae345cb5f6b5e2c27f5033e8ce79060200160405180910390a15050565b60006001600160a01b0384163b15611ffe57604051630a85bd0160e11b81526001600160a01b0385169063150b7a0290611f40903390899088908890600401612857565b602060405180830381600087803b158015611f5a57600080fd5b505af1925050508015611f8a575060408051601f3d908101601f19168201909252611f87918101906126a2565b60015b611fe4573d808015611fb8576040519150601f19603f3d011682016040523d82523d6000602084013e611fbd565b606091505b508051611fdc5760405162461bcd60e51b81526004016106e5906129a2565b805181602001fd5b6001600160e01b031916630a85bd0160e11b1490506116f6565b506001949350505050565b60606000612016836120e7565b600101905060008167ffffffffffffffff81111561204457634e487b7160e01b600052604160045260246000fd5b6040519080825280601f01601f19166020018201604052801561206e576020820181803683370190505b5090508181016020015b600019016f181899199a1a9b1b9c1cb0b131b232b360811b600a86061a8153600a85049450846120a7576120ac565b612078565b509392505050565b6120be83836121bf565b6120cb6000848484611efc565b6107865760405162461bcd60e51b81526004016106e5906129a2565b60008072184f03e93ff9f4daa797ed6e38ed64bf6a1f0160401b83106121265772184f03e93ff9f4daa797ed6e38ed64bf6a1f0160401b830492506040015b6d04ee2d6d415b85acef81000000008310612152576d04ee2d6d415b85acef8100000000830492506020015b662386f26fc10000831061217057662386f26fc10000830492506010015b6305f5e1008310612188576305f5e100830492506008015b612710831061219c57612710830492506004015b606483106121ae576064830492506002015b600a83106105b15760010192915050565b6001600160a01b0382166122155760405162461bcd60e51b815260206004820181905260248201527f4552433732313a206d696e7420746f20746865207a65726f206164647265737360448201526064016106e5565b6000818152600260205260409020546001600160a01b03161561227a5760405162461bcd60e51b815260206004820152601c60248201527f4552433732313a20746f6b656e20616c7265616479206d696e7465640000000060448201526064016106e5565b6000818152600260205260409020546001600160a01b0316156122df5760405162461bcd60e51b815260206004820152601c60248201527f4552433732313a20746f6b656e20616c7265616479206d696e7465640000000060448201526064016106e5565b6001600160a01b038216600081815260036020908152604080832080546001019055848352600290915280822080546001600160a01b0319168417905551839291907fddf252ad1be2c89b69c2b068fc378daa952ba7f163c4a11628f55a4df523b3ef908290a45050565b6040518061010001604052806000815260200160006001600160a01b0316815260200160006001600160a01b03168152602001600081526020016000151581526020016000815260200160008152602001606081525090565b8280548282559060005260206000209081019282156123f8579160200282015b828111156123f857825182546001600160a01b0319166001600160a01b039091161782556020909201916001909101906123c3565b5061240492915061247c565b5090565b82805461241490612ac7565b90600052602060002090601f01602090048101928261243657600085556123f8565b82601f1061244f57805160ff19168380011785556123f8565b828001600101855582156123f8579182015b828111156123f8578251825591602001919060010190612461565b5b80821115612404576000815560010161247d565b600067ffffffffffffffff808411156124ac576124ac612b2d565b604051601f8501601f19908116603f011681019082821181831017156124d4576124d4612b2d565b816040528093508581528686860111156124ed57600080fd5b858560208301376000602087830101525050509392505050565b80356001600160a01b038116811461251e57600080fd5b919050565b600060208284031215612534578081fd5b6107bf82612507565b6000806040838503121561254f578081fd5b61255883612507565b915061256660208401612507565b90509250929050565b600080600060608486031215612583578081fd5b61258c84612507565b925061259a60208501612507565b9150604084013590509250925092565b600080600080608085870312156125bf578081fd5b6125c885612507565b93506125d660208601612507565b925060408501359150606085013567ffffffffffffffff8111156125f8578182fd5b8501601f81018713612608578182fd5b61261787823560208401612491565b91505092959194509250565b60008060408385031215612635578182fd5b61263e83612507565b915060208301358015158114612652578182fd5b809150509250929050565b6000806040838503121561266f578182fd5b61267883612507565b946020939093013593505050565b600060208284031215612697578081fd5b81356107bf81612b43565b6000602082840312156126b3578081fd5b81516107bf81612b43565b600080604083850312156126d0578182fd5b823567ffffffffffffffff8111156126e6578283fd5b8301601f810185136126f6578283fd5b61270585823560208401612491565b95602094909401359450505050565b600060208284031215612725578081fd5b5035919050565b6000806040838503121561273e578182fd5b82359150602083013560ff81168114612652578182fd5b6000815180845261276d816020860160208601612a9b565b601f01601f19169290920160200192915050565b805182526020808201516001600160a01b03908116828501526040808401518216908501526060808401519085015260808084015115159085015260a0808401519085015260c0808401519085015260e080840151610100918601829052805191860182905260009361012087019391810192909185915b8083101561281b578451821686529483019493830193600192909201916127f9565b5093979650505050505050565b6000835161283a818460208801612a9b565b83519083019061284e818360208801612a9b565b01949350505050565b6001600160a01b038581168252841660208201526040810183905260806060820181905260009061288a90830184612755565b9695505050505050565b6020808252825182820181905260009190848201906040850190845b818110156128d55783516001600160a01b0316835292840192918401916001016128b0565b50909695505050505050565b6000602080830181845280855180835260408601915060408160051b8701019250838701855b8281101561293557603f19888603018452612923858351612781565b94509285019290850190600101612907565b5092979650505050505050565b6020815260006107bf6020830184612755565b6020808252602d908201527f4552433732313a2063616c6c6572206973206e6f7420746f6b656e206f776e6560408201526c1c881bdc88185c1c1c9bdd9959609a1b606082015260800190565b60208082526032908201527f4552433732313a207472616e7366657220746f206e6f6e20455243373231526560408201527131b2b4bb32b91034b6b83632b6b2b73a32b960711b606082015260800190565b60208082526025908201527f4552433732313a207472616e736665722066726f6d20696e636f72726563742060408201526437bbb732b960d91b606082015260800190565b6020815260006107bf6020830184612781565b60008219821115612a5f57612a5f612b17565b500190565b600082612a7f57634e487b7160e01b81526012600452602481fd5b500490565b600082821015612a9657612a96612b17565b500390565b60005b83811015612ab6578181015183820152602001612a9e565b838111156112465750506000910152565b600181811c90821680612adb57607f821691505b60208210811415610d7557634e487b7160e01b600052602260045260246000fd5b6000600019821415612b1057612b10612b17565b5060010190565b634e487b7160e01b600052601160045260246000fd5b634e487b7160e01b600052604160045260246000fd5b6001600160e01b031981168114611a4857600080fdfea264697066735822122024b0b367e72f01a73690cfb9f5efb4eb707e30ca57954136f6e43b42cbe644fb64736f6c63430008040033",
  "linkReferences": {},
  "deployedLinkReferences": {}
}