{
  "_format": "hh-sol-artifact-1",
  "contractName": "FoodRecipe",
  "sourceName": "contracts/FoodRecipe.sol",
  "abi": [
    {
      "inputs": [],
      "stateMutability": "nonpayable",
      "type": "constructor"
    },
    {
      "anonymous": false,
      "inputs": [
        {
          "indexed": true,
          "internalType": "address",
          "name": "owner",
          "type": "address"
        },
        {
          "indexed": true,
          "internalType": "address",
          "name": "approved",
          "type": "address"
        },
        {
          "indexed": true,
          "internalType": "uint256",
          "name": "tokenId",
          "type": "uint256"
        }
      ],
      "name": "Approval",
      "type": "event"
    },
    {
      "anonymous": false,
      "inputs": [
        {
          "indexed": true,
          "internalType": "address",
          "name": "owner",
          "type": "address"
        },
        {
          "indexed": true,
          "internalType": "address",
          "name": "operator",
          "type": "address"
        },
        {
          "indexed": false,
          "internalType": "bool",
          "name": "approved",
          "type": "bool"
        }
      ],
      "name": "ApprovalForAll",
      "type": "event"
    },
    {
      "anonymous": false,
      "inputs": [
        {
          "indexed": false,
          "internalType": "uint256",
          "name": "_fromTokenId",
          "type": "uint256"
        },
        {
          "indexed": false,
          "internalType": "uint256",
          "name": "_toTokenId",
          "type": "uint256"
        }
      ],
      "name": "BatchMetadataUpdate",
      "type": "event"
    },
    {
      "anonymous": false,
      "inputs": [
        {
          "indexed": true,
          "internalType": "uint256",
          "name": "tokenId",
          "type": "uint256"
        },
        {
          "indexed": false,
          "internalType": "address",
          "name": "owner",
          "type": "address"
        },
        {
          "indexed": false,
          "internalType": "address",
          "name": "seller",
          "type": "address"
        },
        {
          "indexed": false,
          "internalType": "uint256",
          "name": "price",
          "type": "uint256"
        },
        {
          "indexed": false,
          "internalType": "bool",
          "name": "available",
          "type": "bool"
        }
      ],
      "name": "FoodItemAdded",
      "type": "event"
    },
    {
      "anonymous": false,
      "inputs": [
        {
          "indexed": false,
          "internalType": "uint256",
          "name": "_tokenId",
          "type": "uint256"
        }
      ],
      "name": "MetadataUpdate",
      "type": "event"
    },
    {
      "anonymous": false,
      "inputs": [
        {
          "indexed": true,
          "internalType": "address",
          "name": "from",
          "type": "address"
        },
        {
          "indexed": true,
          "internalType": "address",
          "name": "to",
          "type": "address"
        },
        {
          "indexed": true,
          "internalType": "uint256",
          "name": "tokenId",
          "type": "uint256"
        }
      ],
      "name": "Transfer",
      "type": "event"
    },
    {
      "inputs": [
        {
          "internalType": "uint256",
          "name": "tokenid",
          "type": "uint256"
        }
      ],
      "name": "PurchaseFoodItem",
      "outputs": [],
      "stateMutability": "payable",
      "type": "function"
    },
    {
      "inputs": [
        {
          "internalType": "address",
          "name": "to",
          "type": "address"
        },
        {
          "internalType": "uint256",
          "name": "tokenId",
          "type": "uint256"
        }
      ],
      "name": "approve",
      "outputs": [],
      "stateMutability": "nonpayable",
      "type": "function"
    },
    {
      "inputs": [
        {
          "internalType": "uint256",
          "name": "",
          "type": "uint256"
        }
      ],
      "name": "availableFoodItemIds",
      "outputs": [
        {
          "internalType": "uint256",
          "name": "",
          "type": "uint256"
        }
      ],
      "stateMutability": "view",
      "type": "function"
    },
    {
      "inputs": [
        {
          "internalType": "address",
          "name": "owner",
          "type": "address"
        }
      ],
      "name": "balanceOf",
      "outputs": [
        {
          "internalType": "uint256",
          "name": "",
          "type": "uint256"
        }
      ],
      "stateMutability": "view",
      "type": "function"
    },
    {
      "inputs": [
        {
          "internalType": "string",
          "name": "tokenurl",
          "type": "string"
        },
        {
          "internalType": "uint256",
          "name": "price",
          "type": "uint256"
        }
      ],
      "name": "createFoodToken",
      "outputs": [
        {
          "internalType": "uint256",
          "name": "",
          "type": "uint256"
        }
      ],
      "stateMutability": "payable",
      "type": "function"
    },
    {
      "inputs": [],
      "name": "getAllFoodNFTs",
      "outputs": [
        {
          "components": [
            {
              "internalType": "uint256",
              "name": "tokenId",
              "type": "uint256"
            },
            {
              "internalType": "address payable",
              "name": "owner",
              "type": "address"
            },
            {
              "internalType": "address payable",
              "name": "seller",
              "type": "address"
            },
            {
              "internalType": "uint256",
              "name": "price",
              "type": "uint256"
            },
            {
              "internalType": "bool",
              "name": "available",
              "type": "bool"
            }
          ],
          "internalType": "struct FoodRecipe.FoodItem[]",
          "name": "",
          "type": "tuple[]"
        }
      ],
      "stateMutability": "view",
      "type": "function"
    },
    {
      "inputs": [
        {
          "internalType": "uint256",
          "name": "tokenId",
          "type": "uint256"
        }
      ],
      "name": "getApproved",
      "outputs": [
        {
          "internalType": "address",
          "name": "",
          "type": "address"
        }
      ],
      "stateMutability": "view",
      "type": "function"
    },
    {
      "inputs": [],
      "name": "getCurrentToken",
      "outputs": [
        {
          "internalType": "uint256",
          "name": "",
          "type": "uint256"
        }
      ],
      "stateMutability": "view",
      "type": "function"
    },
    {
      "inputs": [],
      "name": "getListPrice",
      "outputs": [
        {
          "internalType": "uint256",
          "name": "",
          "type": "uint256"
        }
      ],
      "stateMutability": "view",
      "type": "function"
    },
    {
      "inputs": [
        {
          "internalType": "uint256",
          "name": "tokenId",
          "type": "uint256"
        }
      ],
      "name": "getListedItemGivenId",
      "outputs": [
        {
          "components": [
            {
              "internalType": "uint256",
              "name": "tokenId",
              "type": "uint256"
            },
            {
              "internalType": "address payable",
              "name": "owner",
              "type": "address"
            },
            {
              "internalType": "address payable",
              "name": "seller",
              "type": "address"
            },
            {
              "internalType": "uint256",
              "name": "price",
              "type": "uint256"
            },
            {
              "internalType": "bool",
              "name": "available",
              "type": "bool"
            }
          ],
          "internalType": "struct FoodRecipe.FoodItem",
          "name": "",
          "type": "tuple"
        }
      ],
      "stateMutability": "view",
      "type": "function"
    },
    {
      "inputs": [],
      "name": "getMyFoodNFTs",
      "outputs": [
        {
          "components": [
            {
              "internalType": "uint256",
              "name": "tokenId",
              "type": "uint256"
            },
            {
              "internalType": "address payable",
              "name": "owner",
              "type": "address"
            },
            {
              "internalType": "address payable",
              "name": "seller",
              "type": "address"
            },
            {
              "internalType": "uint256",
              "name": "price",
              "type": "uint256"
            },
            {
              "internalType": "bool",
              "name": "available",
              "type": "bool"
            }
          ],
          "internalType": "struct FoodRecipe.FoodItem[]",
          "name": "",
          "type": "tuple[]"
        }
      ],
      "stateMutability": "view",
      "type": "function"
    },
    {
      "inputs": [
        {
          "internalType": "address",
          "name": "owner",
          "type": "address"
        },
        {
          "internalType": "address",
          "name": "operator",
          "type": "address"
        }
      ],
      "name": "isApprovedForAll",
      "outputs": [
        {
          "internalType": "bool",
          "name": "",
          "type": "bool"
        }
      ],
      "stateMutability": "view",
      "type": "function"
    },
    {
      "inputs": [],
      "name": "name",
      "outputs": [
        {
          "internalType": "string",
          "name": "",
          "type": "string"
        }
      ],
      "stateMutability": "view",
      "type": "function"
    },
    {
      "inputs": [
        {
          "internalType": "uint256",
          "name": "tokenId",
          "type": "uint256"
        }
      ],
      "name": "ownerOf",
      "outputs": [
        {
          "internalType": "address",
          "name": "",
          "type": "address"
        }
      ],
      "stateMutability": "view",
      "type": "function"
    },
    {
      "inputs": [
        {
          "internalType": "address",
          "name": "from",
          "type": "address"
        },
        {
          "internalType": "address",
          "name": "to",
          "type": "address"
        },
        {
          "internalType": "uint256",
          "name": "tokenId",
          "type": "uint256"
        }
      ],
      "name": "safeTransferFrom",
      "outputs": [],
      "stateMutability": "nonpayable",
      "type": "function"
    },
    {
      "inputs": [
        {
          "internalType": "address",
          "name": "from",
          "type": "address"
        },
        {
          "internalType": "address",
          "name": "to",
          "type": "address"
        },
        {
          "internalType": "uint256",
          "name": "tokenId",
          "type": "uint256"
        },
        {
          "internalType": "bytes",
          "name": "data",
          "type": "bytes"
        }
      ],
      "name": "safeTransferFrom",
      "outputs": [],
      "stateMutability": "nonpayable",
      "type": "function"
    },
    {
      "inputs": [
        {
          "internalType": "address",
          "name": "operator",
          "type": "address"
        },
        {
          "internalType": "bool",
          "name": "approved",
          "type": "bool"
        }
      ],
      "name": "setApprovalForAll",
      "outputs": [],
      "stateMutability": "nonpayable",
      "type": "function"
    },
    {
      "inputs": [
        {
          "internalType": "bytes4",
          "name": "interfaceId",
          "type": "bytes4"
        }
      ],
      "name": "supportsInterface",
      "outputs": [
        {
          "internalType": "bool",
          "name": "",
          "type": "bool"
        }
      ],
      "stateMutability": "view",
      "type": "function"
    },
    {
      "inputs": [],
      "name": "symbol",
      "outputs": [
        {
          "internalType": "string",
          "name": "",
          "type": "string"
        }
      ],
      "stateMutability": "view",
      "type": "function"
    },
    {
      "inputs": [
        {
          "internalType": "uint256",
          "name": "tokenId",
          "type": "uint256"
        }
      ],
      "name": "tokenURI",
      "outputs": [
        {
          "internalType": "string",
          "name": "",
          "type": "string"
        }
      ],
      "stateMutability": "view",
      "type": "function"
    },
    {
      "inputs": [
        {
          "internalType": "address",
          "name": "from",
          "type": "address"
        },
        {
          "internalType": "address",
          "name": "to",
          "type": "address"
        },
        {
          "internalType": "uint256",
          "name": "tokenId",
          "type": "uint256"
        }
      ],
      "name": "transferFrom",
      "outputs": [],
      "stateMutability": "nonpayable",
      "type": "function"
    }
  ],
  "bytecode": "0x6080604052662386f26fc100006009553480156200001c57600080fd5b50604080518082018252600a815269466f6f6452656369706560b01b6020808301918252835180850190945260048452634e46544d60e01b9084015281519192916200006b916000916200009c565b508051620000819060019060208401906200009c565b5050600780546001600160a01b03191633179055506200017f565b828054620000aa9062000142565b90600052602060002090601f016020900481019282620000ce576000855562000119565b82601f10620000e957805160ff191683800117855562000119565b8280016001018555821562000119579182015b8281111562000119578251825591602001919060010190620000fc565b50620001279291506200012b565b5090565b5b808211156200012757600081556001016200012c565b600181811c908216806200015757607f821691505b602082108114156200017957634e487b7160e01b600052602260045260246000fd5b50919050565b611f92806200018f6000396000f3fe60806040526004361061012a5760003560e01c806368f1945f116100ab578063b03e6e001161006f578063b03e6e00146103c4578063b88d4fde146103d7578063c87b56dd146103f7578063e985e9c514610417578063ef2d174614610437578063f5ccc11c1461044c57600080fd5b806368f1945f146102a55780636f595395146102ba57806370a082311461036f57806395d89b411461038f578063a22cb465146103a457600080fd5b80632b75ef05116100f25780632b75ef051461020057806342842e0e1461022e5780634d72339e1461024e57806357cbbd1c146102705780636352211e1461028557600080fd5b806301ffc9a71461012f57806306fdde0314610164578063081812fc14610186578063095ea7b3146101be57806323b872dd146101e0575b600080fd5b34801561013b57600080fd5b5061014f61014a366004611bb5565b61045f565b60405190151581526020015b60405180910390f35b34801561017057600080fd5b5061017961048a565b60405161015b9190611d81565b34801561019257600080fd5b506101a66101a1366004611c43565b61051c565b6040516001600160a01b03909116815260200161015b565b3480156101ca57600080fd5b506101de6101d9366004611b8c565b610543565b005b3480156101ec57600080fd5b506101de6101fb366004611a9e565b61065e565b34801561020c57600080fd5b5061022061021b366004611c43565b61068f565b60405190815260200161015b565b34801561023a57600080fd5b506101de610249366004611a9e565b6106b0565b34801561025a57600080fd5b506102636106cb565b60405161015b9190611d33565b34801561027c57600080fd5b506102636108c4565b34801561029157600080fd5b506101a66102a0366004611c43565b610a31565b3480156102b157600080fd5b50600954610220565b3480156102c657600080fd5b506103626102d5366004611c43565b6040805160a081018252600080825260208201819052918101829052606081018290526080810191909152506000908152600a6020908152604091829020825160a0810184528154815260018201546001600160a01b03908116938201939093526002820154909216928201929092526003820154606082015260049091015460ff161515608082015290565b60405161015b9190611e78565b34801561037b57600080fd5b5061022061038a366004611a52565b610a91565b34801561039b57600080fd5b50610179610b17565b3480156103b057600080fd5b506101de6103bf366004611b52565b610b26565b6101de6103d2366004611c43565b610b35565b3480156103e357600080fd5b506101de6103f2366004611ad9565b610c30565b34801561040357600080fd5b50610179610412366004611c43565b610c62565b34801561042357600080fd5b5061014f610432366004611a6c565b610d73565b34801561044357600080fd5b50610220610da1565b61022061045a366004611bed565b610db1565b60006001600160e01b03198216632483248360e11b1480610484575061048482610f95565b92915050565b60606000805461049990611eca565b80601f01602080910402602001604051908101604052809291908181526020018280546104c590611eca565b80156105125780601f106104e757610100808354040283529160200191610512565b820191906000526020600020905b8154815290600101906020018083116104f557829003601f168201915b5050505050905090565b600061052782610fe5565b506000908152600460205260409020546001600160a01b031690565b600061054e82610a31565b9050806001600160a01b0316836001600160a01b031614156105c15760405162461bcd60e51b815260206004820152602160248201527f4552433732313a20617070726f76616c20746f2063757272656e74206f776e656044820152603960f91b60648201526084015b60405180910390fd5b336001600160a01b03821614806105dd57506105dd8133610d73565b61064f5760405162461bcd60e51b815260206004820152603d60248201527f4552433732313a20617070726f76652063616c6c6572206973206e6f7420746f60448201527f6b656e206f776e6572206f7220617070726f76656420666f7220616c6c00000060648201526084016105b8565b6106598383611047565b505050565b61066833826110b5565b6106845760405162461bcd60e51b81526004016105b890611d94565b610659838383611113565b600b818154811061069f57600080fd5b600091825260209091200154905081565b61065983838360405180602001604052806000815250610c30565b606060006106d860085490565b905060008080805b8481101561073b5733600a60006106f8846001611e86565b81526020810191909152604001600020600101546001600160a01b0316141561072957610726600185611e86565b93505b8061073381611eff565b9150506106e0565b5060008367ffffffffffffffff81111561076557634e487b7160e01b600052604160045260246000fd5b6040519080825280602002602001820160405280156107be57816020015b6040805160a0810182526000808252602080830182905292820181905260608201819052608082015282526000199092019101816107835790505b50905060005b858110156108ba5733600a60006107dc846001611e86565b81526020810191909152604001600020600101546001600160a01b031614156108a85761080a816001611e86565b6000818152600a6020908152604091829020825160a0810184528154815260018201546001600160a01b039081169382019390935260028201549092169282019290925260038201546060820152600482015460ff16151560808201528451929550909184908790811061088e57634e487b7160e01b600052603260045260246000fd5b60209081029190910101526108a4600186611e86565b9450505b806108b281611eff565b9150506107c4565b5095945050505050565b600b5460609060009067ffffffffffffffff8111156108f357634e487b7160e01b600052604160045260246000fd5b60405190808252806020026020018201604052801561094c57816020015b6040805160a0810182526000808252602080830182905292820181905260608201819052608082015282526000199092019101816109115790505b50905060005b600b54811015610a2b576000600b828154811061097f57634e487b7160e01b600052603260045260246000fd5b6000918252602080832090910154808352600a8252604092839020835160a0810185528154815260018201546001600160a01b03908116948201949094526002820154909316938301939093526003830154606083015260049092015460ff1615156080820152845191925090849084908110610a0c57634e487b7160e01b600052603260045260246000fd5b6020026020010181905250508080610a2390611eff565b915050610952565b50919050565b6000818152600260205260408120546001600160a01b0316806104845760405162461bcd60e51b8152602060048201526018602482015277115490cdcc8c4e881a5b9d985b1a59081d1bdad95b88125160421b60448201526064016105b8565b60006001600160a01b038216610afb5760405162461bcd60e51b815260206004820152602960248201527f4552433732313a2061646472657373207a65726f206973206e6f7420612076616044820152683634b21037bbb732b960b91b60648201526084016105b8565b506001600160a01b031660009081526003602052604090205490565b60606001805461049990611eca565b610b31338383611277565b5050565b6000818152600a6020526040902060038101546001909101546001600160a01b0316348214610bbb5760405162461bcd60e51b815260206004820152602c60248201527f796f75206d757374207061792074686520707269636520746f2070757263686160448201526b39b2903a34329037b93232b960a11b60648201526084016105b8565b6000838152600a6020526040902060010180546001600160a01b03191633908117909155610beb90829085611113565b610bf58184610543565b6040516001600160a01b038216903480156108fc02916000818181858888f19350505050158015610c2a573d6000803e3d6000fd5b50505050565b610c3a33836110b5565b610c565760405162461bcd60e51b81526004016105b890611d94565b610c2a84848484611346565b6060610c6d82610fe5565b60008281526006602052604081208054610c8690611eca565b80601f0160208091040260200160405190810160405280929190818152602001828054610cb290611eca565b8015610cff5780601f10610cd457610100808354040283529160200191610cff565b820191906000526020600020905b815481529060010190602001808311610ce257829003601f168201915b505050505090506000610d1d60408051602081019091526000815290565b9050805160001415610d30575092915050565b815115610d62578082604051602001610d4a929190611cc7565b60405160208183030381529060405292505050919050565b610d6b84611379565b949350505050565b6001600160a01b03918216600090815260056020908152604080832093909416825291909152205460ff1690565b6000610dac60085490565b905090565b60006009543414610e045760405162461bcd60e51b815260206004820152601960248201527f73656e64206120636f7272656374206c6973742070726963650000000000000060448201526064016105b8565b60008211610e545760405162461bcd60e51b815260206004820152601860248201527f70726963652063616e6e6f74206265206e65676174697665000000000000000060448201526064016105b8565b610e62600880546001019055565b6000610e6d60085490565b9050610e7933826113ed565b610e838185611407565b6040805160a0810182528281523360208083018281523084860181815260608087018b815260016080808a0182815260008d8152600a8a528c90209a518b5596518a830180546001600160a01b03199081166001600160a01b0393841617909155955160028c0180549097169116179094559051600389015593516004909701805460ff1916971515979097179096558651918252928101939093529382018790529181019290925282917f21fc84a3ce4a44c91c8199979356dc5cda4bde8f81b104256c8ca42d5052d956910160405180910390a2600b80546001810182556000919091527f0175b7a638427703f0dbe7bb9bbf987a2551717b34e79f33b5b1008d1fa01db9018190559392505050565b60006001600160e01b031982166380ac58cd60e01b1480610fc657506001600160e01b03198216635b5e139f60e01b145b8061048457506301ffc9a760e01b6001600160e01b0319831614610484565b6000818152600260205260409020546001600160a01b03166110445760405162461bcd60e51b8152602060048201526018602482015277115490cdcc8c4e881a5b9d985b1a59081d1bdad95b88125160421b60448201526064016105b8565b50565b600081815260046020526040902080546001600160a01b0319166001600160a01b038416908117909155819061107c82610a31565b6001600160a01b03167f8c5be1e5ebec7d5bd14f71427d1e84f3dd0314c0f7b2291e5b200ac8c7c3b92560405160405180910390a45050565b6000806110c183610a31565b9050806001600160a01b0316846001600160a01b031614806110e857506110e88185610d73565b80610d6b5750836001600160a01b03166111018461051c565b6001600160a01b031614949350505050565b826001600160a01b031661112682610a31565b6001600160a01b03161461114c5760405162461bcd60e51b81526004016105b890611e33565b6001600160a01b0382166111ae5760405162461bcd60e51b8152602060048201526024808201527f4552433732313a207472616e7366657220746f20746865207a65726f206164646044820152637265737360e01b60648201526084016105b8565b826001600160a01b03166111c182610a31565b6001600160a01b0316146111e75760405162461bcd60e51b81526004016105b890611e33565b600081815260046020908152604080832080546001600160a01b03199081169091556001600160a01b0387811680865260038552838620805460001901905590871680865283862080546001019055868652600290945282852080549092168417909155905184937fddf252ad1be2c89b69c2b068fc378daa952ba7f163c4a11628f55a4df523b3ef91a4505050565b816001600160a01b0316836001600160a01b031614156112d95760405162461bcd60e51b815260206004820152601960248201527f4552433732313a20617070726f766520746f2063616c6c65720000000000000060448201526064016105b8565b6001600160a01b03838116600081815260056020908152604080832094871680845294825291829020805460ff191686151590811790915591519182527f17307eab39ab6107e8899845ad3d59bd9653f200f220920489ca2b5937696c31910160405180910390a3505050565b611351848484611113565b61135d848484846114d9565b610c2a5760405162461bcd60e51b81526004016105b890611de1565b606061138482610fe5565b600061139b60408051602081019091526000815290565b905060008151116113bb57604051806020016040528060008152506113e6565b806113c5846115e6565b6040516020016113d6929190611cc7565b6040516020818303038152906040525b9392505050565b610b31828260405180602001604052806000815250611691565b6000828152600260205260409020546001600160a01b03166114825760405162461bcd60e51b815260206004820152602e60248201527f45524337323155524953746f726167653a2055524920736574206f66206e6f6e60448201526d32bc34b9ba32b73a103a37b5b2b760911b60648201526084016105b8565b600082815260066020908152604090912082516114a192840190611927565b506040518281527ff8e1a15aba9398e019f0b49df1a4fde98ee17ae345cb5f6b5e2c27f5033e8ce79060200160405180910390a15050565b60006001600160a01b0384163b156115db57604051630a85bd0160e11b81526001600160a01b0385169063150b7a029061151d903390899088908890600401611cf6565b602060405180830381600087803b15801561153757600080fd5b505af1925050508015611567575060408051601f3d908101601f1916820190925261156491810190611bd1565b60015b6115c1573d808015611595576040519150601f19603f3d011682016040523d82523d6000602084013e61159a565b606091505b5080516115b95760405162461bcd60e51b81526004016105b890611de1565b805181602001fd5b6001600160e01b031916630a85bd0160e11b149050610d6b565b506001949350505050565b606060006115f3836116c4565b600101905060008167ffffffffffffffff81111561162157634e487b7160e01b600052604160045260246000fd5b6040519080825280601f01601f19166020018201604052801561164b576020820181803683370190505b5090508181016020015b600019016f181899199a1a9b1b9c1cb0b131b232b360811b600a86061a8153600a850494508461168457611689565b611655565b509392505050565b61169b838361179c565b6116a860008484846114d9565b6106595760405162461bcd60e51b81526004016105b890611de1565b60008072184f03e93ff9f4daa797ed6e38ed64bf6a1f0160401b83106117035772184f03e93ff9f4daa797ed6e38ed64bf6a1f0160401b830492506040015b6d04ee2d6d415b85acef8100000000831061172f576d04ee2d6d415b85acef8100000000830492506020015b662386f26fc10000831061174d57662386f26fc10000830492506010015b6305f5e1008310611765576305f5e100830492506008015b612710831061177957612710830492506004015b6064831061178b576064830492506002015b600a83106104845760010192915050565b6001600160a01b0382166117f25760405162461bcd60e51b815260206004820181905260248201527f4552433732313a206d696e7420746f20746865207a65726f206164647265737360448201526064016105b8565b6000818152600260205260409020546001600160a01b0316156118575760405162461bcd60e51b815260206004820152601c60248201527f4552433732313a20746f6b656e20616c7265616479206d696e7465640000000060448201526064016105b8565b6000818152600260205260409020546001600160a01b0316156118bc5760405162461bcd60e51b815260206004820152601c60248201527f4552433732313a20746f6b656e20616c7265616479206d696e7465640000000060448201526064016105b8565b6001600160a01b038216600081815260036020908152604080832080546001019055848352600290915280822080546001600160a01b0319168417905551839291907fddf252ad1be2c89b69c2b068fc378daa952ba7f163c4a11628f55a4df523b3ef908290a45050565b82805461193390611eca565b90600052602060002090601f016020900481019282611955576000855561199b565b82601f1061196e57805160ff191683800117855561199b565b8280016001018555821561199b579182015b8281111561199b578251825591602001919060010190611980565b506119a79291506119ab565b5090565b5b808211156119a757600081556001016119ac565b600067ffffffffffffffff808411156119db576119db611f30565b604051601f8501601f19908116603f01168101908282118183101715611a0357611a03611f30565b81604052809350858152868686011115611a1c57600080fd5b858560208301376000602087830101525050509392505050565b80356001600160a01b0381168114611a4d57600080fd5b919050565b600060208284031215611a63578081fd5b6113e682611a36565b60008060408385031215611a7e578081fd5b611a8783611a36565b9150611a9560208401611a36565b90509250929050565b600080600060608486031215611ab2578081fd5b611abb84611a36565b9250611ac960208501611a36565b9150604084013590509250925092565b60008060008060808587031215611aee578081fd5b611af785611a36565b9350611b0560208601611a36565b925060408501359150606085013567ffffffffffffffff811115611b27578182fd5b8501601f81018713611b37578182fd5b611b46878235602084016119c0565b91505092959194509250565b60008060408385031215611b64578182fd5b611b6d83611a36565b915060208301358015158114611b81578182fd5b809150509250929050565b60008060408385031215611b9e578182fd5b611ba783611a36565b946020939093013593505050565b600060208284031215611bc6578081fd5b81356113e681611f46565b600060208284031215611be2578081fd5b81516113e681611f46565b60008060408385031215611bff578182fd5b823567ffffffffffffffff811115611c15578283fd5b8301601f81018513611c25578283fd5b611c34858235602084016119c0565b95602094909401359450505050565b600060208284031215611c54578081fd5b5035919050565b60008151808452611c73816020860160208601611e9e565b601f01601f19169290920160200192915050565b805182526020808201516001600160a01b039081169184019190915260408083015190911690830152606080820151908301526080908101511515910152565b60008351611cd9818460208801611e9e565b835190830190611ced818360208801611e9e565b01949350505050565b6001600160a01b0385811682528416602082015260408101839052608060608201819052600090611d2990830184611c5b565b9695505050505050565b6020808252825182820181905260009190848201906040850190845b81811015611d7557611d62838551611c87565b9284019260a09290920191600101611d4f565b50909695505050505050565b6020815260006113e66020830184611c5b565b6020808252602d908201527f4552433732313a2063616c6c6572206973206e6f7420746f6b656e206f776e6560408201526c1c881bdc88185c1c1c9bdd9959609a1b606082015260800190565b60208082526032908201527f4552433732313a207472616e7366657220746f206e6f6e20455243373231526560408201527131b2b4bb32b91034b6b83632b6b2b73a32b960711b606082015260800190565b60208082526025908201527f4552433732313a207472616e736665722066726f6d20696e636f72726563742060408201526437bbb732b960d91b606082015260800190565b60a081016104848284611c87565b60008219821115611e9957611e99611f1a565b500190565b60005b83811015611eb9578181015183820152602001611ea1565b83811115610c2a5750506000910152565b600181811c90821680611ede57607f821691505b60208210811415610a2b57634e487b7160e01b600052602260045260246000fd5b6000600019821415611f1357611f13611f1a565b5060010190565b634e487b7160e01b600052601160045260246000fd5b634e487b7160e01b600052604160045260246000fd5b6001600160e01b03198116811461104457600080fdfea2646970667358221220d5edc4399e4f8b00b5933452b4c39fe2f810447c9777cbb3dda1b88ab161e87064736f6c63430008040033",
  "linkReferences": {},
  "deployedLinkReferences": {}
}