{
  "_format": "hh-sol-artifact-1",
  "contractName": "NFTMarketplace",
  "sourceName": "contracts/NFTMarketplace.sol",
  "abi": [
    {
      "inputs": [],
      "stateMutability": "nonpayable",
      "type": "constructor"
    },
    {
      "anonymous": false,
      "inputs": [
        {
          "indexed": true,
          "internalType": "address",
          "name": "owner",
          "type": "address"
        },
        {
          "indexed": true,
          "internalType": "address",
          "name": "approved",
          "type": "address"
        },
        {
          "indexed": true,
          "internalType": "uint256",
          "name": "tokenId",
          "type": "uint256"
        }
      ],
      "name": "Approval",
      "type": "event"
    },
    {
      "anonymous": false,
      "inputs": [
        {
          "indexed": true,
          "internalType": "address",
          "name": "owner",
          "type": "address"
        },
        {
          "indexed": true,
          "internalType": "address",
          "name": "operator",
          "type": "address"
        },
        {
          "indexed": false,
          "internalType": "bool",
          "name": "approved",
          "type": "bool"
        }
      ],
      "name": "ApprovalForAll",
      "type": "event"
    },
    {
      "anonymous": false,
      "inputs": [
        {
          "indexed": false,
          "internalType": "uint256",
          "name": "_fromTokenId",
          "type": "uint256"
        },
        {
          "indexed": false,
          "internalType": "uint256",
          "name": "_toTokenId",
          "type": "uint256"
        }
      ],
      "name": "BatchMetadataUpdate",
      "type": "event"
    },
    {
      "anonymous": false,
      "inputs": [
        {
          "indexed": true,
          "internalType": "uint256",
          "name": "tokenId",
          "type": "uint256"
        },
        {
          "indexed": false,
          "internalType": "address",
          "name": "owner",
          "type": "address"
        },
        {
          "indexed": false,
          "internalType": "address",
          "name": "seller",
          "type": "address"
        },
        {
          "indexed": false,
          "internalType": "uint256",
          "name": "price",
          "type": "uint256"
        },
        {
          "indexed": false,
          "internalType": "bool",
          "name": "available",
          "type": "bool"
        }
      ],
      "name": "FoodItemAdded",
      "type": "event"
    },
    {
      "anonymous": false,
      "inputs": [
        {
          "indexed": false,
          "internalType": "uint256",
          "name": "_tokenId",
          "type": "uint256"
        }
      ],
      "name": "MetadataUpdate",
      "type": "event"
    },
    {
      "anonymous": false,
      "inputs": [
        {
          "indexed": true,
          "internalType": "address",
          "name": "from",
          "type": "address"
        },
        {
          "indexed": true,
          "internalType": "address",
          "name": "to",
          "type": "address"
        },
        {
          "indexed": true,
          "internalType": "uint256",
          "name": "tokenId",
          "type": "uint256"
        }
      ],
      "name": "Transfer",
      "type": "event"
    },
    {
      "inputs": [
        {
          "internalType": "uint256",
          "name": "tokenid",
          "type": "uint256"
        }
      ],
      "name": "PurchaseFoodItem",
      "outputs": [],
      "stateMutability": "payable",
      "type": "function"
    },
    {
      "inputs": [
        {
          "internalType": "address",
          "name": "to",
          "type": "address"
        },
        {
          "internalType": "uint256",
          "name": "tokenId",
          "type": "uint256"
        }
      ],
      "name": "approve",
      "outputs": [],
      "stateMutability": "nonpayable",
      "type": "function"
    },
    {
      "inputs": [
        {
          "internalType": "uint256",
          "name": "",
          "type": "uint256"
        }
      ],
      "name": "availableFoodItemIds",
      "outputs": [
        {
          "internalType": "uint256",
          "name": "",
          "type": "uint256"
        }
      ],
      "stateMutability": "view",
      "type": "function"
    },
    {
      "inputs": [
        {
          "internalType": "address",
          "name": "owner",
          "type": "address"
        }
      ],
      "name": "balanceOf",
      "outputs": [
        {
          "internalType": "uint256",
          "name": "",
          "type": "uint256"
        }
      ],
      "stateMutability": "view",
      "type": "function"
    },
    {
      "inputs": [
        {
          "internalType": "string",
          "name": "tokenurl",
          "type": "string"
        },
        {
          "internalType": "uint256",
          "name": "price",
          "type": "uint256"
        }
      ],
      "name": "createFoodToken",
      "outputs": [
        {
          "internalType": "uint256",
          "name": "",
          "type": "uint256"
        }
      ],
      "stateMutability": "payable",
      "type": "function"
    },
    {
      "inputs": [],
      "name": "getAllFoodNFTs",
      "outputs": [
        {
          "components": [
            {
              "internalType": "uint256",
              "name": "tokenId",
              "type": "uint256"
            },
            {
              "internalType": "address payable",
              "name": "owner",
              "type": "address"
            },
            {
              "internalType": "address payable",
              "name": "seller",
              "type": "address"
            },
            {
              "internalType": "uint256",
              "name": "price",
              "type": "uint256"
            },
            {
              "internalType": "bool",
              "name": "available",
              "type": "bool"
            }
          ],
          "internalType": "struct NFTMarketplace.FoodItem[]",
          "name": "",
          "type": "tuple[]"
        }
      ],
      "stateMutability": "view",
      "type": "function"
    },
    {
      "inputs": [
        {
          "internalType": "uint256",
          "name": "tokenId",
          "type": "uint256"
        }
      ],
      "name": "getApproved",
      "outputs": [
        {
          "internalType": "address",
          "name": "",
          "type": "address"
        }
      ],
      "stateMutability": "view",
      "type": "function"
    },
    {
      "inputs": [],
      "name": "getCurrentToken",
      "outputs": [
        {
          "internalType": "uint256",
          "name": "",
          "type": "uint256"
        }
      ],
      "stateMutability": "view",
      "type": "function"
    },
    {
      "inputs": [],
      "name": "getLatestIdToListedFoodItems",
      "outputs": [
        {
          "components": [
            {
              "internalType": "uint256",
              "name": "tokenId",
              "type": "uint256"
            },
            {
              "internalType": "address payable",
              "name": "owner",
              "type": "address"
            },
            {
              "internalType": "address payable",
              "name": "seller",
              "type": "address"
            },
            {
              "internalType": "uint256",
              "name": "price",
              "type": "uint256"
            },
            {
              "internalType": "bool",
              "name": "available",
              "type": "bool"
            }
          ],
          "internalType": "struct NFTMarketplace.FoodItem",
          "name": "",
          "type": "tuple"
        }
      ],
      "stateMutability": "view",
      "type": "function"
    },
    {
      "inputs": [],
      "name": "getListPrice",
      "outputs": [
        {
          "internalType": "uint256",
          "name": "",
          "type": "uint256"
        }
      ],
      "stateMutability": "view",
      "type": "function"
    },
    {
      "inputs": [
        {
          "internalType": "uint256",
          "name": "tokenId",
          "type": "uint256"
        }
      ],
      "name": "getListedItemGivenId",
      "outputs": [
        {
          "components": [
            {
              "internalType": "uint256",
              "name": "tokenId",
              "type": "uint256"
            },
            {
              "internalType": "address payable",
              "name": "owner",
              "type": "address"
            },
            {
              "internalType": "address payable",
              "name": "seller",
              "type": "address"
            },
            {
              "internalType": "uint256",
              "name": "price",
              "type": "uint256"
            },
            {
              "internalType": "bool",
              "name": "available",
              "type": "bool"
            }
          ],
          "internalType": "struct NFTMarketplace.FoodItem",
          "name": "",
          "type": "tuple"
        }
      ],
      "stateMutability": "view",
      "type": "function"
    },
    {
      "inputs": [],
      "name": "getMyFoodNFTs",
      "outputs": [
        {
          "components": [
            {
              "internalType": "uint256",
              "name": "tokenId",
              "type": "uint256"
            },
            {
              "internalType": "address payable",
              "name": "owner",
              "type": "address"
            },
            {
              "internalType": "address payable",
              "name": "seller",
              "type": "address"
            },
            {
              "internalType": "uint256",
              "name": "price",
              "type": "uint256"
            },
            {
              "internalType": "bool",
              "name": "available",
              "type": "bool"
            }
          ],
          "internalType": "struct NFTMarketplace.FoodItem[]",
          "name": "",
          "type": "tuple[]"
        }
      ],
      "stateMutability": "view",
      "type": "function"
    },
    {
      "inputs": [
        {
          "internalType": "address",
          "name": "owner",
          "type": "address"
        },
        {
          "internalType": "address",
          "name": "operator",
          "type": "address"
        }
      ],
      "name": "isApprovedForAll",
      "outputs": [
        {
          "internalType": "bool",
          "name": "",
          "type": "bool"
        }
      ],
      "stateMutability": "view",
      "type": "function"
    },
    {
      "inputs": [],
      "name": "name",
      "outputs": [
        {
          "internalType": "string",
          "name": "",
          "type": "string"
        }
      ],
      "stateMutability": "view",
      "type": "function"
    },
    {
      "inputs": [
        {
          "internalType": "uint256",
          "name": "tokenId",
          "type": "uint256"
        }
      ],
      "name": "ownerOf",
      "outputs": [
        {
          "internalType": "address",
          "name": "",
          "type": "address"
        }
      ],
      "stateMutability": "view",
      "type": "function"
    },
    {
      "inputs": [
        {
          "internalType": "address",
          "name": "from",
          "type": "address"
        },
        {
          "internalType": "address",
          "name": "to",
          "type": "address"
        },
        {
          "internalType": "uint256",
          "name": "tokenId",
          "type": "uint256"
        }
      ],
      "name": "safeTransferFrom",
      "outputs": [],
      "stateMutability": "nonpayable",
      "type": "function"
    },
    {
      "inputs": [
        {
          "internalType": "address",
          "name": "from",
          "type": "address"
        },
        {
          "internalType": "address",
          "name": "to",
          "type": "address"
        },
        {
          "internalType": "uint256",
          "name": "tokenId",
          "type": "uint256"
        },
        {
          "internalType": "bytes",
          "name": "data",
          "type": "bytes"
        }
      ],
      "name": "safeTransferFrom",
      "outputs": [],
      "stateMutability": "nonpayable",
      "type": "function"
    },
    {
      "inputs": [
        {
          "internalType": "address",
          "name": "operator",
          "type": "address"
        },
        {
          "internalType": "bool",
          "name": "approved",
          "type": "bool"
        }
      ],
      "name": "setApprovalForAll",
      "outputs": [],
      "stateMutability": "nonpayable",
      "type": "function"
    },
    {
      "inputs": [
        {
          "internalType": "bytes4",
          "name": "interfaceId",
          "type": "bytes4"
        }
      ],
      "name": "supportsInterface",
      "outputs": [
        {
          "internalType": "bool",
          "name": "",
          "type": "bool"
        }
      ],
      "stateMutability": "view",
      "type": "function"
    },
    {
      "inputs": [],
      "name": "symbol",
      "outputs": [
        {
          "internalType": "string",
          "name": "",
          "type": "string"
        }
      ],
      "stateMutability": "view",
      "type": "function"
    },
    {
      "inputs": [
        {
          "internalType": "uint256",
          "name": "tokenId",
          "type": "uint256"
        }
      ],
      "name": "tokenURI",
      "outputs": [
        {
          "internalType": "string",
          "name": "",
          "type": "string"
        }
      ],
      "stateMutability": "view",
      "type": "function"
    },
    {
      "inputs": [
        {
          "internalType": "address",
          "name": "from",
          "type": "address"
        },
        {
          "internalType": "address",
          "name": "to",
          "type": "address"
        },
        {
          "internalType": "uint256",
          "name": "tokenId",
          "type": "uint256"
        }
      ],
      "name": "transferFrom",
      "outputs": [],
      "stateMutability": "nonpayable",
      "type": "function"
    },
    {
      "inputs": [
        {
          "internalType": "uint256",
          "name": "_listPrice",
          "type": "uint256"
        }
      ],
      "name": "updateListPrice",
      "outputs": [],
      "stateMutability": "payable",
      "type": "function"
    }
  ],
  "bytecode": "0x6080604052662386f26fc10000600a553480156200001c57600080fd5b50604080518082018252600e81526d4e46544d61726b6574706c61636560901b6020808301918252835180850190945260048452634e46544d60e01b9084015281519192916200006f91600091620000a0565b50805162000085906001906020840190620000a0565b5050600780546001600160a01b031916331790555062000183565b828054620000ae9062000146565b90600052602060002090601f016020900481019282620000d257600085556200011d565b82601f10620000ed57805160ff19168380011785556200011d565b828001600101855582156200011d579182015b828111156200011d57825182559160200191906001019062000100565b506200012b9291506200012f565b5090565b5b808211156200012b576000815560010162000130565b600181811c908216806200015b57607f821691505b602082108114156200017d57634e487b7160e01b600052602260045260246000fd5b50919050565b61203f80620001936000396000f3fe6080604052600436106101405760003560e01c80636f595395116100b6578063bf8c93ea1161006f578063bf8c93ea14610385578063c322579c1461039a578063c87b56dd146103ad578063e985e9c5146103cd578063ef2d1746146103ed578063f5ccc11c1461040257600080fd5b80636f595395146102d057806370a08231146102fd57806395d89b411461031d578063a22cb46514610332578063b03e6e0014610352578063b88d4fde1461036557600080fd5b80632b75ef05116101085780632b75ef051461021657806342842e0e146102445780634d72339e1461026457806357cbbd1c146102865780636352211e1461029b57806368f1945f146102bb57600080fd5b806301ffc9a71461014557806306fdde031461017a578063081812fc1461019c578063095ea7b3146101d457806323b872dd146101f6575b600080fd5b34801561015157600080fd5b50610165610160366004611c62565b610415565b60405190151581526020015b60405180910390f35b34801561018657600080fd5b5061018f610440565b6040516101719190611e2e565b3480156101a857600080fd5b506101bc6101b7366004611cf0565b6104d2565b6040516001600160a01b039091168152602001610171565b3480156101e057600080fd5b506101f46101ef366004611c39565b6104f9565b005b34801561020257600080fd5b506101f4610211366004611b4b565b610614565b34801561022257600080fd5b50610236610231366004611cf0565b610645565b604051908152602001610171565b34801561025057600080fd5b506101f461025f366004611b4b565b610666565b34801561027057600080fd5b50610279610681565b6040516101719190611de0565b34801561029257600080fd5b5061027961085a565b3480156102a757600080fd5b506101bc6102b6366004611cf0565b6109a7565b3480156102c757600080fd5b50600a54610236565b3480156102dc57600080fd5b506102f06102eb366004611cf0565b610a07565b6040516101719190611f25565b34801561030957600080fd5b50610236610318366004611aff565b610a71565b34801561032957600080fd5b5061018f610af7565b34801561033e57600080fd5b506101f461034d366004611bff565b610b06565b6101f4610360366004611cf0565b610b15565b34801561037157600080fd5b506101f4610380366004611b86565b610c1a565b34801561039157600080fd5b506102f0610c4c565b6101f46103a8366004611cf0565b610cc3565b3480156103b957600080fd5b5061018f6103c8366004611cf0565b610d2e565b3480156103d957600080fd5b506101656103e8366004611b19565b610e3f565b3480156103f957600080fd5b50610236610e6d565b610236610410366004611c9a565b610e7d565b60006001600160e01b03198216632483248360e11b148061043a575061043a82611061565b92915050565b60606000805461044f90611f77565b80601f016020809104026020016040519081016040528092919081815260200182805461047b90611f77565b80156104c85780601f1061049d576101008083540402835291602001916104c8565b820191906000526020600020905b8154815290600101906020018083116104ab57829003601f168201915b5050505050905090565b60006104dd826110b1565b506000908152600460205260409020546001600160a01b031690565b6000610504826109a7565b9050806001600160a01b0316836001600160a01b031614156105775760405162461bcd60e51b815260206004820152602160248201527f4552433732313a20617070726f76616c20746f2063757272656e74206f776e656044820152603960f91b60648201526084015b60405180910390fd5b336001600160a01b038216148061059357506105938133610e3f565b6106055760405162461bcd60e51b815260206004820152603d60248201527f4552433732313a20617070726f76652063616c6c6572206973206e6f7420746f60448201527f6b656e206f776e6572206f7220617070726f76656420666f7220616c6c000000606482015260840161056e565b61060f8383611113565b505050565b61061e3382611181565b61063a5760405162461bcd60e51b815260040161056e90611e41565b61060f8383836111df565b600c818154811061065557600080fd5b600091825260209091200154905081565b61060f83838360405180602001604052806000815250610c1a565b6060600061068e60085490565b905060008080805b848110156106f15733600b60006106ae846001611f33565b81526020810191909152604001600020600101546001600160a01b031614156106df576106dc600185611f33565b93505b806106e981611fac565b915050610696565b5060008367ffffffffffffffff81111561071b57634e487b7160e01b600052604160045260246000fd5b60405190808252806020026020018201604052801561075457816020015b6107416119a6565b8152602001906001900390816107395790505b50905060005b858110156108505733600b6000610772846001611f33565b81526020810191909152604001600020600101546001600160a01b0316141561083e576107a0816001611f33565b6000818152600b6020908152604091829020825160a0810184528154815260018201546001600160a01b039081169382019390935260028201549092169282019290925260038201546060820152600482015460ff16151560808201528451929550909184908790811061082457634e487b7160e01b600052603260045260246000fd5b602090810291909101015261083a600186611f33565b9450505b8061084881611fac565b91505061075a565b5095945050505050565b600c5460609060009067ffffffffffffffff81111561088957634e487b7160e01b600052604160045260246000fd5b6040519080825280602002602001820160405280156108c257816020015b6108af6119a6565b8152602001906001900390816108a75790505b50905060005b600c548110156109a1576000600c82815481106108f557634e487b7160e01b600052603260045260246000fd5b6000918252602080832090910154808352600b8252604092839020835160a0810185528154815260018201546001600160a01b03908116948201949094526002820154909316938301939093526003830154606083015260049092015460ff161515608082015284519192509084908490811061098257634e487b7160e01b600052603260045260246000fd5b602002602001018190525050808061099990611fac565b9150506108c8565b50919050565b6000818152600260205260408120546001600160a01b03168061043a5760405162461bcd60e51b8152602060048201526018602482015277115490cdcc8c4e881a5b9d985b1a59081d1bdad95b88125160421b604482015260640161056e565b610a0f6119a6565b506000908152600b6020908152604091829020825160a0810184528154815260018201546001600160a01b03908116938201939093526002820154909216928201929092526003820154606082015260049091015460ff161515608082015290565b60006001600160a01b038216610adb5760405162461bcd60e51b815260206004820152602960248201527f4552433732313a2061646472657373207a65726f206973206e6f7420612076616044820152683634b21037bbb732b960b91b606482015260840161056e565b506001600160a01b031660009081526003602052604090205490565b60606001805461044f90611f77565b610b11338383611343565b5050565b6000818152600b6020526040902060038101546001909101546001600160a01b0316348214610b9b5760405162461bcd60e51b815260206004820152602c60248201527f796f75206d757374207061792074686520707269636520746f2070757263686160448201526b39b2903a34329037b93232b960a11b606482015260840161056e565b6000838152600b6020526040902060010180546001600160a01b03191633179055610bca600980546001019055565b610bd58133856111df565b610bdf81846104f9565b6040516001600160a01b038216903480156108fc02916000818181858888f19350505050158015610c14573d6000803e3d6000fd5b50505050565b610c243383611181565b610c405760405162461bcd60e51b815260040161056e90611e41565b610c1484848484611412565b610c546119a6565b6000610c5f60085490565b6000908152600b6020908152604091829020825160a0810184528154815260018201546001600160a01b03908116938201939093526002820154909216928201929092526003820154606082015260049091015460ff161515608082015292915050565b6007546001600160a01b03163314610d295760405162461bcd60e51b815260206004820152602360248201527f4f6e6c79206f776e65722063616e20757064617465206c697374696e6720707260448201526269636560e81b606482015260840161056e565b600a55565b6060610d39826110b1565b60008281526006602052604081208054610d5290611f77565b80601f0160208091040260200160405190810160405280929190818152602001828054610d7e90611f77565b8015610dcb5780601f10610da057610100808354040283529160200191610dcb565b820191906000526020600020905b815481529060010190602001808311610dae57829003601f168201915b505050505090506000610de960408051602081019091526000815290565b9050805160001415610dfc575092915050565b815115610e2e578082604051602001610e16929190611d74565b60405160208183030381529060405292505050919050565b610e3784611445565b949350505050565b6001600160a01b03918216600090815260056020908152604080832093909416825291909152205460ff1690565b6000610e7860085490565b905090565b6000600a543414610ed05760405162461bcd60e51b815260206004820152601f60248201527f686f706566756c6c792073656e64696e6720636f727265637420707269636500604482015260640161056e565b60008211610f205760405162461bcd60e51b815260206004820152601f60248201527f6d616b652073757265207072696365206973206e6f74206e6567617469766500604482015260640161056e565b610f2e600880546001019055565b6000610f3960085490565b9050610f4533826114b9565b610f4f8185611644565b6040805160a0810182528281523360208083018281523084860181815260608087018b815260016080808a0182815260008d8152600b8a528c90209a518b5596518a830180546001600160a01b03199081166001600160a01b0393841617909155955160028c0180549097169116179094559051600389015593516004909701805460ff1916971515979097179096558651918252928101939093529382018790529181019290925282917f21fc84a3ce4a44c91c8199979356dc5cda4bde8f81b104256c8ca42d5052d956910160405180910390a2600c80546001810182556000919091527fdf6966c971051c3d54ec59162606531493a51404a002842f56009d7e5cf4a8c7018190559392505050565b60006001600160e01b031982166380ac58cd60e01b148061109257506001600160e01b03198216635b5e139f60e01b145b8061043a57506301ffc9a760e01b6001600160e01b031983161461043a565b6000818152600260205260409020546001600160a01b03166111105760405162461bcd60e51b8152602060048201526018602482015277115490cdcc8c4e881a5b9d985b1a59081d1bdad95b88125160421b604482015260640161056e565b50565b600081815260046020526040902080546001600160a01b0319166001600160a01b0384169081179091558190611148826109a7565b6001600160a01b03167f8c5be1e5ebec7d5bd14f71427d1e84f3dd0314c0f7b2291e5b200ac8c7c3b92560405160405180910390a45050565b60008061118d836109a7565b9050806001600160a01b0316846001600160a01b031614806111b457506111b48185610e3f565b80610e375750836001600160a01b03166111cd846104d2565b6001600160a01b031614949350505050565b826001600160a01b03166111f2826109a7565b6001600160a01b0316146112185760405162461bcd60e51b815260040161056e90611ee0565b6001600160a01b03821661127a5760405162461bcd60e51b8152602060048201526024808201527f4552433732313a207472616e7366657220746f20746865207a65726f206164646044820152637265737360e01b606482015260840161056e565b826001600160a01b031661128d826109a7565b6001600160a01b0316146112b35760405162461bcd60e51b815260040161056e90611ee0565b600081815260046020908152604080832080546001600160a01b03199081169091556001600160a01b0387811680865260038552838620805460001901905590871680865283862080546001019055868652600290945282852080549092168417909155905184937fddf252ad1be2c89b69c2b068fc378daa952ba7f163c4a11628f55a4df523b3ef91a4505050565b816001600160a01b0316836001600160a01b031614156113a55760405162461bcd60e51b815260206004820152601960248201527f4552433732313a20617070726f766520746f2063616c6c657200000000000000604482015260640161056e565b6001600160a01b03838116600081815260056020908152604080832094871680845294825291829020805460ff191686151590811790915591519182527f17307eab39ab6107e8899845ad3d59bd9653f200f220920489ca2b5937696c31910160405180910390a3505050565b61141d8484846111df565b61142984848484611716565b610c145760405162461bcd60e51b815260040161056e90611e8e565b6060611450826110b1565b600061146760408051602081019091526000815290565b9050600081511161148757604051806020016040528060008152506114b2565b8061149184611823565b6040516020016114a2929190611d74565b6040516020818303038152906040525b9392505050565b6001600160a01b03821661150f5760405162461bcd60e51b815260206004820181905260248201527f4552433732313a206d696e7420746f20746865207a65726f2061646472657373604482015260640161056e565b6000818152600260205260409020546001600160a01b0316156115745760405162461bcd60e51b815260206004820152601c60248201527f4552433732313a20746f6b656e20616c7265616479206d696e74656400000000604482015260640161056e565b6000818152600260205260409020546001600160a01b0316156115d95760405162461bcd60e51b815260206004820152601c60248201527f4552433732313a20746f6b656e20616c7265616479206d696e74656400000000604482015260640161056e565b6001600160a01b038216600081815260036020908152604080832080546001019055848352600290915280822080546001600160a01b0319168417905551839291907fddf252ad1be2c89b69c2b068fc378daa952ba7f163c4a11628f55a4df523b3ef908290a45050565b6000828152600260205260409020546001600160a01b03166116bf5760405162461bcd60e51b815260206004820152602e60248201527f45524337323155524953746f726167653a2055524920736574206f66206e6f6e60448201526d32bc34b9ba32b73a103a37b5b2b760911b606482015260840161056e565b600082815260066020908152604090912082516116de928401906119d4565b506040518281527ff8e1a15aba9398e019f0b49df1a4fde98ee17ae345cb5f6b5e2c27f5033e8ce79060200160405180910390a15050565b60006001600160a01b0384163b1561181857604051630a85bd0160e11b81526001600160a01b0385169063150b7a029061175a903390899088908890600401611da3565b602060405180830381600087803b15801561177457600080fd5b505af19250505080156117a4575060408051601f3d908101601f191682019092526117a191810190611c7e565b60015b6117fe573d8080156117d2576040519150601f19603f3d011682016040523d82523d6000602084013e6117d7565b606091505b5080516117f65760405162461bcd60e51b815260040161056e90611e8e565b805181602001fd5b6001600160e01b031916630a85bd0160e11b149050610e37565b506001949350505050565b60606000611830836118ce565b600101905060008167ffffffffffffffff81111561185e57634e487b7160e01b600052604160045260246000fd5b6040519080825280601f01601f191660200182016040528015611888576020820181803683370190505b5090508181016020015b600019016f181899199a1a9b1b9c1cb0b131b232b360811b600a86061a8153600a85049450846118c1576118c6565b611892565b509392505050565b60008072184f03e93ff9f4daa797ed6e38ed64bf6a1f0160401b831061190d5772184f03e93ff9f4daa797ed6e38ed64bf6a1f0160401b830492506040015b6d04ee2d6d415b85acef81000000008310611939576d04ee2d6d415b85acef8100000000830492506020015b662386f26fc10000831061195757662386f26fc10000830492506010015b6305f5e100831061196f576305f5e100830492506008015b612710831061198357612710830492506004015b60648310611995576064830492506002015b600a831061043a5760010192915050565b6040805160a08101825260008082526020820181905291810182905260608101829052608081019190915290565b8280546119e090611f77565b90600052602060002090601f016020900481019282611a025760008555611a48565b82601f10611a1b57805160ff1916838001178555611a48565b82800160010185558215611a48579182015b82811115611a48578251825591602001919060010190611a2d565b50611a54929150611a58565b5090565b5b80821115611a545760008155600101611a59565b600067ffffffffffffffff80841115611a8857611a88611fdd565b604051601f8501601f19908116603f01168101908282118183101715611ab057611ab0611fdd565b81604052809350858152868686011115611ac957600080fd5b858560208301376000602087830101525050509392505050565b80356001600160a01b0381168114611afa57600080fd5b919050565b600060208284031215611b10578081fd5b6114b282611ae3565b60008060408385031215611b2b578081fd5b611b3483611ae3565b9150611b4260208401611ae3565b90509250929050565b600080600060608486031215611b5f578081fd5b611b6884611ae3565b9250611b7660208501611ae3565b9150604084013590509250925092565b60008060008060808587031215611b9b578081fd5b611ba485611ae3565b9350611bb260208601611ae3565b925060408501359150606085013567ffffffffffffffff811115611bd4578182fd5b8501601f81018713611be4578182fd5b611bf387823560208401611a6d565b91505092959194509250565b60008060408385031215611c11578182fd5b611c1a83611ae3565b915060208301358015158114611c2e578182fd5b809150509250929050565b60008060408385031215611c4b578182fd5b611c5483611ae3565b946020939093013593505050565b600060208284031215611c73578081fd5b81356114b281611ff3565b600060208284031215611c8f578081fd5b81516114b281611ff3565b60008060408385031215611cac578182fd5b823567ffffffffffffffff811115611cc2578283fd5b8301601f81018513611cd2578283fd5b611ce185823560208401611a6d565b95602094909401359450505050565b600060208284031215611d01578081fd5b5035919050565b60008151808452611d20816020860160208601611f4b565b601f01601f19169290920160200192915050565b805182526020808201516001600160a01b039081169184019190915260408083015190911690830152606080820151908301526080908101511515910152565b60008351611d86818460208801611f4b565b835190830190611d9a818360208801611f4b565b01949350505050565b6001600160a01b0385811682528416602082015260408101839052608060608201819052600090611dd690830184611d08565b9695505050505050565b6020808252825182820181905260009190848201906040850190845b81811015611e2257611e0f838551611d34565b9284019260a09290920191600101611dfc565b50909695505050505050565b6020815260006114b26020830184611d08565b6020808252602d908201527f4552433732313a2063616c6c6572206973206e6f7420746f6b656e206f776e6560408201526c1c881bdc88185c1c1c9bdd9959609a1b606082015260800190565b60208082526032908201527f4552433732313a207472616e7366657220746f206e6f6e20455243373231526560408201527131b2b4bb32b91034b6b83632b6b2b73a32b960711b606082015260800190565b60208082526025908201527f4552433732313a207472616e736665722066726f6d20696e636f72726563742060408201526437bbb732b960d91b606082015260800190565b60a0810161043a8284611d34565b60008219821115611f4657611f46611fc7565b500190565b60005b83811015611f66578181015183820152602001611f4e565b83811115610c145750506000910152565b600181811c90821680611f8b57607f821691505b602082108114156109a157634e487b7160e01b600052602260045260246000fd5b6000600019821415611fc057611fc0611fc7565b5060010190565b634e487b7160e01b600052601160045260246000fd5b634e487b7160e01b600052604160045260246000fd5b6001600160e01b03198116811461111057600080fdfea264697066735822122080f457e5dd64d978cf7d41c29f8c5f5a71f0ebcb378414f18da191d4c840a5b564736f6c63430008040033",
  "linkReferences": {},
  "deployedLinkReferences": {}
}